:020000040000fa
:080000000002040000000000f2
:020000040000fa
:100400006fda2100007f2400000188000000000056
:100410000c00070000e0220001002000110007008e
:10042000000020000000e000020032000000020096
:10043000000000005c270200000000000040da001d
:100440000000fe004440a900e00e20000000e00093
:100450000300320000002000a00188004440a800f2
:100460000000060091018800800078000000eb0089
:1004700015003700e280400032a0b4009101ba00bc
:10048000e280400032a0b4009102ba00e280400055
:1004900032a0b4000002eb00472bde00f507b200eb
:1004a000602ce10004003a000059eb008301e900f0
:1004b000fdff3e00040037006128e100010032002a
:1004c0000082eb00040007001101ba000200e00006
:1004d000e8ff3a00000006003159ba008301e90044
:1004e0000c0032002159ba008301e90008003200f3
:1004f0000400e00003003a00e280400032a0b400b3
:10050000f5ff370011d9ba008301e900faff3a007c
:100510008100e800e180400032a0b4000000060045
:1005200022260400000000007c26040000000000d9
:10053000fa17040000000000c02a040000000000b8
:10054000922a0400000000006e2b0400000000004e
:10055000d62b040000000000e81e0400000000008c
:10056000b820040000000000d030040000000000ab
:10057000582d040000000000942d0400000000002d
:10058000c402040000000000881f78000204780004
:100590002e000700080040004f047800000006000d
:1005a0000000fa00881f7800000478003fb9970027
:1005b000ea81570080007800402c20004b000700a3
:1005c000800078000000e000020035000040eb00f1
:1005d00000f47800010078004f0478000080fa00f1
:1005e00000000600040037000204e0000a003200a8
:1005f0000000e8008100e80010417800914f5100b0
:10060000f9ff32000081eb0010407800914f50005c
:1006100004003900020037000001eb000100370040
:10062000120020000200780000000600800178001f
:100630000001780031407800005978000004e000a3
:10064000fcff3a0003007800000006008001eb0088
:100650000200370061f079008301e800828f5100c9
:10066000fcff3a00000006000003780080017800db
:100670000002eb000100370080597800840251002d
:10068000820f52000900320064c078000402e800c2
:100690000004e000f8ff3a00830078008058eb0087
:1006a00005804100808f5000fcff3a000600780072
:1006b000000006008001eb00020037008171780025
:1006c0008301e800828f5100fcff3a000000060021
:1006d00080007800010037000000e8001004e0000e
:1006e000fdff3a0001005000000006006200fa0021
:1006f000889fbe008a9fbe000004be0002057800ed
:100700008300780060f92f000f004000b000070060
:1007100088979f0099979f000000eb00a09f9f0083
:100720009a4578000b80fb000000ea00cf04de0051
:1007300050c2b30080cf5500020032000904780097
:10074000010037000904e9000800e0000b00340054
:100750001f909700080178008a0078008f91970019
:100760000300010090979f000000e000930032001a
:100770002f98970000004400a09f9f0009054500a6
:1007800050c2b30080cf5500040032000b04e000db
:10079000e3ff3a002f989700890037000000eb0034
:1007a000809f9f00f0979f00e0979f00d0979f0049
:1007b000c0979f00b0979f00c09f9f00090037001f
:1007c00080d921000080500000004000c1d82100e5
:1007d000e10078004f98970001007000c09f9f00d3
:1007e0000a05e8001a4478008800fb0080d921003f
:1007f0007c000700800078000000e000f0ff3a0075
:10080000a0c2b300804f54000e003a00bf8897008a
:100810000180e900b08f9f0010007800b09f9f001a
:100820000000e00005003d000000ea00b09f9f00ce
:100830004f9897000020a000c09f9f000a05e80085
:1008400010003700b19f9f0009003700bf98970044
:10085000f0ff2700808f5000040032006a08b900c2
:100860000000410003004000b09f9f000a05e8001f
:100870001a01fb0003fd2f0003004100e90f5000a7
:10088000f2ff3600e0c2b3009a4f100004003200bd
:100890000080eb00909f9f008a0478001c003700c6
:1008a0008a04e800a0c2b300994f100007003a0084
:1008b000bf8897000180e900b08f9f00100078008a
:1008c000909f9f008a84e800110037000000eb0031
:1008d000909f9f00090037009f989700f0ff270026
:1008e000808f5000040032006a08b9000000410007
:1008f00003004000909f9f008904e8001901fb005d
:1009000003fd2f0003004100e90f5000f2ff360005
:10091000194478008800fb00e0d92100310007006d
:100920000000e00002003a000044780001003700b7
:100930008904e800a87f9f0080c6b300804f540060
:1009400004003a00994f14000a003a006640500033
:1009500006003700c0c6b300804f540005003a00bf
:10096000994f140003003a0065404000a07f9f00ab
:100970008904e8000905e800cbfb2f008f854500be
:100980001901fb0060f92f000f0040000084e8000f
:100990008b01780080007800080078001a000700ba
:1009a0000000e00005003a008b00780008007800a5
:1009b000580107000000e00059ff3d000080eb00f7
:1009c0004f05be004f04be000080fa000000060084
:1009d0000200fa00f1bf9f00010878000080fa00d1
:1009e00000000600040037000204e00001003a00a5
:1009f000000005000000e80010417800814f510020
:100a0000f9ff3a0000000600889fbe008a1f7800a8
:100a10000004780001027800824478000305780021
:100a2000e0c6b300804f5100d200320015003c00f8
:100a30006b405000804f5100240032000a003c00ff
:100a400070405000804f51000f013200654040005f
:100a5000804f51007400320050c2b300804f5100eb
:100a600020013a001c01370040c6b300804f5100fe
:100a70001b00320065404000804f510019013a00d0
:100a80001700370030c7b300804f5100fe0032001e
:100a900007003c0064405000804f5100620032006b
:100aa0000040e800804f51000e013a00e700370097
:100ab00050c7b300804f51005b00320063404000dc
:100ac000804f510007013a00570037009180e9003c
:100ad000010a7800780090009171780007013700d2
:100ae000a8609000c0c6b30080cf50000a003a0052
:100af0009400780064805000000a78001000be0066
:100b00004f89de00cf91de000002be0002037800b4
:100b1000820378001300370010c7b30080cf500065
:100b200003003200a0c6b30080cf500006003a0098
:100b30009400780068805000000a78003002be00ff
:100b40002003be00070037001480e900000a780087
:100b50001000780000027800cfa2de0005037800c4
:100b600086037800049cbe000694be00a860900036
:100b700080c6b30080cf50000e00320020c6b30004
:100b800080cf500005003a000400fb00cf80de005b
:100b900001017800820178000a00370040c7b300e5
:100ba00080cf5000030032006640400080cf5000ec
:100bb00006003a0004007800cf80de0001017800d2
:100bc00082017800009cbe000294be003800be0086
:100bd0002801be00e00f5000e08f5800e00f5900e0
:100be000e08f590003003d0078009000d1c2b300af
:100bf0000a003700081090000018a300030032001c
:100c000078009000b1c2b300040037000008a300d0
:100c1000530032007800900001c2b30001757800e3
:100c20000000e8004d003700a8609000c0c6b30087
:100c300080cf500006003a00940078006480500095
:100c4000000a78001002be006033b80013003700bd
:100c500010c7b30080cf500003003200a0c6b3001d
:100c600080cf500006003a00940078006880500061
:100c7000000a78003002be002003be0007003700e3
:100c80001480e900000a7800100078000002780063
:100c9000050020000600200007002000049cbe0084
:100ca0000694be00a860900080c6b30080cf5000bc
:100cb0000e00320020c6b30080cf500005003a007d
:100cc0000480fb000100200002002000030020003f
:100cd0000a00370040c7b30080cf50000300320045
:100ce0006640400080cf500006003a0004007800c3
:100cf000010020000200200003002000009cbe0034
:100d00000294be00081090000038a30014003200c6
:100d10003800be002801be00e00f5000e08f5800f0
:100d2000e00f5900e08f59000d00320080c7b3007a
:100d300080cf54000300320080c5b30080cf540040
:100d400007003a007800900001c3b30001757800f5
:100d50008000e80009f578000080e8007004980041
:100d600078009000000045006004980089407800f9
:100d700042003700a8609000c0c6b30080cf50008a
:100d8000250032000a003c006440500080cf500033
:100d90002800320000c0e80080cf5000140032006c
:100da0006840500080cf500022003a000a0037000f
:100db00040c7b30080cf50001e00320066404000a4
:100dc00080cf50001b0032006940500080cf50009f
:100dd00018003a00060037001480e900000a780085
:100de00010007800485c9000084878004500370003
:100df0001480e900000a780010027800680890006a
:100e0000cf80de000101780082017800009abe00e8
:100e10000292be003b0037001480e900000a78000f
:100e20001001780068089000cf80de000089be00c5
:100e3000340037001480e900000a780010007800c0
:100e4000680c9000080878002e0037001180e90037
:100e50008008780010007800cf80de000101780063
:100e600082017800009cbe000294be0078009000d1
:100e7000000045006004980081c7b30008007800b6
:100e8000ee0007001f0037001480e900000a780018
:100e90001000780060049800580990000200e000fb
:100ea00002003d000afe0700090037008000eb0049
:100eb0006f020700800078000000e00003003200ad
:100ec0006800900000805000010037005808900032
:100ed000100c98000b003700780090000275780025
:100ee0000600370078009000800045000904e0000b
:100ef00001003a0059c2b300894878000000e800b8
:100f0000700498000000eb004f0578004f04be000d
:100f1000000006000400fa00889fbe008a9fbe0001
:100f20008c1f78000004780001067800700890009b
:100f3000f800900001005000880890000100500067
:100f40009808900001005000a8089000010050008f
:100f5000b808900001005000c808900081055000ba
:100f60000002220090bf9f0000032300a0bf9f004b
:100f7000081090000028a30018003a000b00e000c1
:100f8000160034008b04780009057800e28f5400c5
:100f9000020036002a002000020037000900e000ad
:100fa0000b00340058009000c80190000a0178003e
:100fb000ee80570003000100500498000000e0009c
:100fc000960032006808900000004500600c980010
:100fd0008a8454004240a900ebff3c007801900055
:100fe0000200e0000b00340058009000c80190009f
:100ff0008c00780003000100500498000000e0001d
:101000008600320068089000f8009000010040005f
:10101000600c9800880c90000900e0001500340076
:1010200009057800e28f5400020036002a002000f3
:10103000020037000900e0000b0034005800900067
:10104000c80190000a017800ec80570003000100fd
:10105000500498000000e000700032006808900022
:1010600000004500600c98008a8454004240a900aa
:10107000ebff3c00180990000200e0000b00340078
:10108000e800900058009000c801900003000100a3
:10109000500498000000e0006000320068089000f2
:1010a0009808900001004000600c9800a80c900087
:1010b0000900e0001500340009057800e28f5400b3
:1010c000020036002a002000020037000900e0007c
:1010d0000b00340058009000c80190000a0178000d
:1010e000ec80570003000100500498000000e0006d
:1010f0004a0032006808900000004500600c98002b
:101100008a8454004240a900ebff3c00380990005b
:101110000200e0000d003400e80090001808900084
:101120008080400058009000c8019000030001003a
:10113000500498000000e000380032006808900079
:10114000b808900001004000600c9800c80c9000a6
:101150000900e0001500340009057800e28f540012
:10116000020036002a002000020037000900e000db
:101170000b00340058009000c80190000a0178006c
:10118000ec80570003000100500498000000e000cc
:10119000220032006808900000004500600c9800b2
:1011a0008a8454004240a900ebff3c0008109000e4
:1011b0000028a3001b0032000b00e00019003400df
:1011c0008b04780009057800e28f54000200360095
:1011d0002a002000020037000900e0000b00340064
:1011e00058009000c80190000a017800ee80570076
:1011f00003000100500498000000e00007003200e6
:101200006808900000004500600c98008a84540033
:101210004240a90003003400eaff37000080eb00e1
:10122000010037000000eb004f0678004f05be00bc
:101230004f04be000080fa00000006002f03b0003b
:10124000889fbe008a9fbe008c9fbe008e1f7800c4
:1012500000077800b0d72100c0b79f0080c5b30059
:1012600080cf500008003200a2d62100c2b79f00f4
:101270007740400080cf500003003a0083002000f8
:10128000b3b79f000a00370080c7b30080cf50007b
:1012900005003200a4002000b4b79f0080c5b30051
:1012a00080cf500002003a0005012000b5b79f0032
:1012b0003e04be002e05be0040c6b30080cf5000e5
:1012c000030032006540400080cf50000b003a0020
:1012d000e00f5400e08f5c00e00f5d00e08f5d00e8
:1012e00006003d006000b8006011b800080450001e
:1012f000898458000a0559008b8559003fb1970031
:10130000e80f510003003200f00f510045003a0091
:10131000020037003c002000010037004c00200094
:10132000e00f5400e08f5c00e00f5d00e08f5d0097
:1013300005003a005e08900083012000a3b79f00db
:101340000000e000080032003fb297000400e9000e
:1013500008006000cfb297006540780090df9f00e2
:1013600070012000a0b79f008c0078008100e90088
:10137000050033008b05d1000a85d3008984d30092
:101380000884d300f9ff3700089fbe000a97be000b
:101390002fb197000200e90023fc2f008f8141004c
:1013a00000844100140037002fb097000000e900ce
:1013b000a0b79f003fb197000200e9000400600061
:1013c000cfb19700635478003e00be002e01be00ee
:1013d0000c0278000402e900050033008381d1008b
:1013e0000281d3008180d3000080d300f9ff370051
:1013f000009fbe000297be003e02be002e03be004c
:10140000e00f5200e08f5a00e00f5b00e08f5b00be
:10141000da0034002fb097000000e000e2ff3c004b
:10142000d6003700ae60900080c6b30080cf500079
:101430000b00320006003c000104e000080032000e
:101440006640500080cf500073003a00040037001f
:10145000c0c6b30080cf50006f003a0031003700a3
:10146000080178000800e00005003a005e089000de
:1014700081012000a1b79f000000e00009003200b8
:10148000bfb19700110009000381d8008000fd0062
:101490004fb297006440780090df9f0075012000f4
:1014a000a5b79f003fb29700110009000481d80042
:1014b00080017800afb297000500e90021fc2f0001
:1014c0008f804000008240000c003700bfb29700c0
:1014d000110009008501d800000178002fb09700a5
:1014e0000000e900a0b79f000590b90000805100fe
:1014f000cfb0970061527800820178000300e000cd
:10150000030034002fb197000200e000efff3c0021
:1015100003007800cf80de000101780082017800ae
:101520003a0037000806be00e00f5400e08f5c0070
:1015300005003a005e08900083012000a3b79f00d9
:101540000000e000090032003fb297006121b900bd
:101550000c00be0083020700cfb297006540780000
:1015600090df9f0070012000a0b79f003fb297005e
:101570006121b9000c00be00fc0107000006be009e
:10158000afb297000500e90021fc2f008f804000da
:101590008080400091b79f00110037003fb1970055
:1015a0006114b9000801be000c00be00e001070094
:1015b0000005be00afb197008301e900a3b79f000b
:1015c0000801be00b4000700000056001fb29700db
:1015d000cfb297006552780094b79f000a06be000c
:1015e000e00f5600e08f5e00030034002fb097003c
:1015f0000000e000e9ff3c004feade00cfa2de0081
:101600000c00be000401780084017800009fbe0039
:101610000297be0059003700e00f5400e08f5c00d5
:10162000e00f5d00e08f5d0005003a005e0890006d
:1016300081012000a1b79f000000e0000d003200f2
:101640003fb1970002027800cfa2de0005037800c8
:10165000860378000800be000a01be00c50207002c
:101660004fb297006440780090df9f007501200022
:10167000a5b79f003fb1970002027800cfa2de001d
:1016800005037800860378000800be000a01be004a
:10169000b1020700009fbe000297be00afb19700e5
:1016a0000300e90024fc2f000f0242000006420064
:1016b00024003700bfb2970005047800cfc4de00d5
:1016c000090578008a0578000802be000a03be00fa
:1016d0005fa89700efa897007fa997008fb19700a8
:1016e000a8020700d0b79f00e1b79f00f2b79f00a4
:1016f00083bf9f002fb097000000e900a0b79f00b4
:101700000802be000a03be005fb09700efb097006a
:101710007fb197008fb99700200307005faa970059
:1017200000005200cfb29700655678005fb0970076
:10173000efb097007fb197008fb99700009fbe0070
:101740000297be003e00be002e01be00d0af9f003b
:10175000e1af9f00f2af9f0083b79f00e00f500002
:10176000e08f5800e00f5900e08f5900030034006b
:10177000afb097000100e000ceff3c003fb1970002
:10178000e80f510013003a000e1090000038a3003b
:1017900010003200afb19700f78f510006003e00f5
:1017a00024fc2f000f0242008300420000c3b3005c
:1017b000914f100007003200afb297008502e90098
:1017c000a5b79f0000c3b30021fc2f008f8040000d
:1017d00080f07a00afb1970078811100120f980065
:1017e0006e00900024fc2f000f0242008300420094
:1017f00096fb07001e0990005e089000800f5100c4
:1018000006003d0002005000000f98000e109000ee
:101810000040a100001798000f0037000000e00012
:101820000d003d000e10900074006000f00f50009d
:1018300009003a007e089000fe0090000100500070
:101840008e08900001005000020050004240a900a4
:1018500001003400000f98004f0778004f06be00cb
:101860004f05be004f04be002f03b100000006006c
:101870008001eb00040037008301e80090cf1000e6
:10188000040032000000e800828f5100faff3a00a5
:101890000000eb0000000600020ab900001bb900be
:1018a0000200b800810042008100430000000600f1
:1018b000889fbe008a9fbe008c1f780056010700db
:1018c0005d01330003866c006450e10024003200a7
:1018d0006420e100270032006150e1002200320064
:1018e0006120e100210032008b854200eb07b1004e
:1018f0000134b800003ab8000804420089844a0064
:10190000013ab8000030b8008880400009014a0060
:1019100004003300000040008180480002014900bb
:101920008b05e900c909dd00830170000100320068
:1019300013002000c814de004814dd004709de0053
:101940001200b200c808de00088470004a010700d7
:1019500001f0a1000cf0a70001f0a0003f0137004a
:101960006120e100410132000801be000200be001a
:10197000f7ff37006150e100fcff3a003b01370000
:101980000001be00620107000470a70003f0a1007f
:101990006509b100160032000d0035006828e1002d
:1019a00006003500f0ff2f00f1ff27000300e000e4
:1019b00013003b000100280000000500000040006b
:1019c000818048008502e900fcff3a0008003700ea
:1019d000f88f420002003c008000eb000000050090
:1019e0008100d1000080d3008502e800fcff3a00ae
:1019f0000300e00002003b0060001000e0801800df
:101a000000000600889fbe008a9fbe000105780086
:101a10000100e0000400350008003c000000e00088
:101a2000200032000500370060001000e080180040
:101a300002003b0001f02c001a0037000004be0039
:101a40006011b8006b0920000982cf000200390044
:101a50000882cf000441b000694252000e003200fb
:101a600008003b0082817100610164008904d1009b
:101a70000884d3008b05e8000442e800f9ff3a002f
:101a8000050037000804440089844c008b05e900f8
:101a90000442e900fbff3a00f70007000af0a70044
:101aa00001f0a0004f05be004f04be00000006007c
:101ab00003f0a200889fbe008a9fbe008c1f7800a2
:101ac000d5000700dc0033006450e1004f00320015
:101ad0006420e1005200320003826c0007003b00ea
:101ae0000905d0000306d000820f54000c065d00eb
:101af00002003900020032008901780003067800f4
:101b00008582550004003d000003fd008103fd00b7
:101b10008502ea008b854200840f720002003b00c0
:101b200060001000e08018006011b8000005eb00b4
:101b30007a28e1000a00390006007800c75ddd0060
:101b4000f707b200878075002d0037008281710091
:101b50000a017800610560008180d1000080d30017
:101b60008502e900f9ff3b00060440008784480035
:101b700002003b0060041400e0841c000988a300fc
:101b8000070032008a817100828171006101640066
:101b90008904d1000884d3008b05e80017003700c2
:101ba0000978a30013003a000b00e0001300340092
:101bb0008b05e9000804440089844c000a44740041
:101bc0000978a3000d003a000b00e0000700340084
:101bd0008b05e9000804440089844c0001003a00a8
:101be0000b0020000978a300f7ff32000001eb0092
:101bf00002003700828171000a0178009e00070010
:101c00000cf0a70001f0a000940037006420e10070
:101c100002003a00838f6c00940033000801be007c
:101c20000200be008d003700889fbe008a9fbe0064
:101c30008c1f7800780007007f00330003866c005b
:101c40006450e1002e0032006420e10033003200d5
:101c50006150e1002f0032006120e10031003200cc
:101c600085855500eb07b00009002000080420001e
:101c7000050037000804440089844c000a00310044
:101c80000603430087834b000001530081815b0002
:101c9000f8ff33000203be000800a000080444005f
:101ca00089844c00f6ff3900c639dd0083017300da
:101cb00001003200130020008904d1000884d30001
:101cc0000998a300050032000800a7000300a00047
:101cd0008904d1000884d3008b05e8008904d10071
:101ce0000884d3000001eb000281d20062000700eb
:101cf00001f0a1000cf0a70001f0a0005700370090
:101d00006420e100590032000801be000200be005c
:101d1000f7ff37006120e100540032006000b80096
:101d2000f3ff37000000200001f82700f0ff370024
:101d3000839f68000100e00002003d006000100089
:101d4000e08018000300e00002003d006001110087
:101d5000e0811900050007004f00e00002003b0091
:101d600060001000e0801800000006006022b8004b
:101d7000060220000000d0008180d2000482d20040
:101d80008582d2000000a0000202520083825a0025
:101d9000030031000202420083824a000000a100d9
:101da0000603e900f3ff3a00000006000001be0050
:101db000570007000470a70003f0a10003f8a30078
:101dc00013003a006509b100100032000900350027
:101dd0006928e1000200350001002800000005002c
:101de00000004000818048008502e900fcff3a00c5
:101df00000000600f88f4200050035008100d10088
:101e00000080d3008502e800fcff3a0000000600d5
:101e10008000eb00000005000004be003c0007004d
:101e20000003be000405be000200be00380007002b
:101e3000844f7500000006000200be006450e100ff
:101e4000050036006420e100020036000968a300a6
:101e500001003a000800be000160a0004f067800b3
:101e60004f05be004f04be0000000600f0ff2f002b
:101e7000f1ff2700f9ff3700810020006180550045
:101e80000b003d000b00200061fe2f000100e1006f
:101e90001d00340082817100610164008904d10059
:101ea0000884d3000000e800faff3a007100200027
:101eb000610064000300700002006000090032004d
:101ec00061044400e0844c000988a500050032004c
:101ed0008b05e8006808e10002003a008904d1009f
:101ee0000884d300f20f20000258e10005003d00f5
:101ef000c75ddd00f907b200898075000800780031
:101f0000000006000bf827008b0078000000050099
:101f1000c70ade00f107b200f50fb2000800320078
:101f2000e1cf4200020032000170a0002400050051
:101f3000810f700001003200040805004400050014
:101f4000810f700002003a00140005008502e900cc
:101f50000000400081c04800fcff3b000170a00071
:101f60002400050081ff07000400be0000000600f9
:101f7000881f7800000478005001be004000be00b9
:101f8000040040008580480006014900878149001f
:101f9000009cbe000294be000400e1000588e10040
:101fa0000690e1000798e10002003100680044005b
:101fb0001008e8004f04780000000600f48747008e
:101fc000889fbe008a9fbe008c9fbe008e1f780037
:101fd0000205be000004be00d4b79f00e5b79f0015
:101fe000f6b79f0087bf9f000000eb00c0b79f00bf
:101ff000b0b79f00a0b79f0090b79f0080b79f0029
:102000000d042000bfb097004fb0970000014000c2
:102010000000e0000f003d004f08de0000007100ee
:10202000c0b79f009e00070001003d001200200085
:10203000a100070001003d0012002000a6000700db
:10204000b1000700b60007000f004000c8ff0700fe
:10205000220037004f08de0000067100ccb79f0059
:102060008f00070001003d001200200092000700d1
:1020700001003d001200200097000700a2000700a9
:102080000fb297009fb297002fb39700bfb397008e
:10209000a90007000000520081805a0002015b0085
:1020a00083815b0080b79f0091b79f00a2b79f001c
:1020b000b3b79f000007eb009f0007000020e1007e
:1020c00001a8e10002b0e10003b8e1000100310025
:1020d0001e0020000e005600c0b79f004fb29700b0
:1020e0000400e0000700350010002000010020007f
:1020f0006011b80008047000898470000a0571003e
:102100008b8571008d06e900beff3a000400e000f7
:1021100003003d00820007000f00400094ff07000d
:102120004fa897000000e00004003a000fb49700a9
:102130009fb497002fb59700bfb597009400070094
:102140004f0778004f06be004f05be004f04be008b
:102150004f01b10000000600881f78001800200021
:10216000881f780095ff07008f87e9004f047800eb
:1021700000000600801feb0090ff07008f87e9003a
:1021800000000600889fbe008a9fbe008c1f78005a
:102190006e00070007003d0073000700e00f5b00c2
:1021a000e08f5b0007003d00320007000006eb00f7
:1021b000040037003400070002003d002a00070039
:1021c0001c00200072000700e3ff07000203be00ae
:1021d0000002be000c00e0000100320022000700f7
:1021e0000400be000601be004f0678004f05be0089
:1021f0004f04be0000000600889fbe008a9fbe00fc
:102200008c1f78005100070005003d0056000700b4
:10221000e00f5b00e08f5b0006003d00040037002c
:102220001900070003003d006000b8006011b8000d
:102230001000070056000700ceff07000203be0093
:102240000002be000c00e0000100320006000700a2
:102250000400be000601be004f0678004f05be0018
:102260004f04be00000006006000b8006011b80016
:102270000000370004025000858258000603590010
:1022800087835900000006000006eb00e00f5200b3
:10229000e08f5a00e00f5b00e08f5b00000006005b
:1022a0000180400090b79f000001eb008fb09700c5
:1022b0000100e000000006000200700090b79f00df
:1022c0000180400080b79f000001eb00ffa897004d
:1022d0000100e000000006000200700080b79f00cf
:1022e000018040006faa9700cf20de00010070003f
:1022f000f0af9f0004024200250007004f18de00e7
:102300000002720000000600e4af9f0008044400d1
:1023100089844c000a054d008b854d0000000600a5
:102320003fb29700cfb297005fb39700efb397002b
:1023300000fe2f00000006003fb09700cfb09700ce
:102340005fb19700efb19700000006000205be00e4
:102350000004be00e00f5000e08f5800e00f59006d
:10236000e08f5900000006006000b8006011b8005e
:1023700008045000898458000a0559008b855900cb
:102380001c002000e00f5200e08f5a000000060001
:102390000800be000a01be0000000600889fbe00c3
:1023a0008a9fbe008c1f78000205be000004be009c
:1023b0000006eb00e00f5000e08f5800e00f5900de
:1023c000e08f590007003d006000b8006011b800c0
:1023d00008045000898458000a0559008b8559006b
:1023e0001c002000e00f5200e08f5a00e00f5b005d
:1023f000e08f5b0002003d000f0007000c00a20010
:102400000800be000a01be00120007000203be0061
:102410000002be000c00e0000100320006000700d0
:102420000400be000601be004f0678004f05be0046
:102430004f04be00000006006000b8006011b80044
:102440000402500085825800060359008783590012
:1024500000000600889fbe008a9fbe008c9fbe00c1
:102460000404b8000506b8008904460060854e00e3
:102470000606b8000a054600e0854e000706b800cb
:102480008b054600040eb800890446000a854e00fc
:10249000e0854d00050eb8000a0546008b854e000c
:1024a000060eb8008b0546000416b8000a05460063
:1024b0008b854e000516b8008b054600041eb8003b
:1024c0008b0546000800be000a01be004f06be0094
:0c24d0004f05be004f04be0000000600d7
:020000040000fa
:0200000401f009
:04000c00f8ff0000f9
:020000040000fa
:0200000401f009
:040010007fff00006e
:020000040000fa
:0200000401f009
:040014007fff00006a
:020000040000fa
:10000800b2320000b2320000b2320000b232000058
:10001800b2320000b2320000b2320000b232000048
:10002800b2320000b2320000b2320000862f000067
:10003800b2320000b2320000b2320000d231000009
:10004800b2320000b2320000b2320000de280000f6
:100058003229000042320000b2320000b232000001
:10006800b2320000b2320000b2320000b2320000f8
:10007800b2320000b2320000b2320000b2320000e8
:10008800b2320000b2320000b2320000b2320000d8
:10009800b2320000b2320000b2320000b2320000c8
:1000a800b2320000b2320000b2320000b2320000b8
:1000b800b2320000b2320000b2320000b2320000a8
:1000c800b2320000b2320000b2320000b232000098
:1000d800b2320000b2320000b2320000b232000088
:1000e800b2320000b2320000b2320000b232000078
:1000f800b2320000b2320000b2320000b232000068
:10010800b2320000b2320000b2320000b232000057
:10011800b2320000b2320000b2320000b232000047
:10012800b2320000b2320000b2320000b232000037
:10013800b2320000b2320000b2320000b232000027
:10014800b2320000b2320000b2320000b232000017
:10015800b2320000b2320000b2320000b232000007
:10016800b2320000b2320000b2320000b2320000f7
:10017800b2320000b2320000b2320000b2320000e7
:10018800b2320000b2320000b2320000b2320000d7
:10019800b2320000b2320000b2320000b2320000c7
:1001a800b2320000b2320000b2320000b2320000b7
:1001b800b2320000b2320000b2320000b2320000a7
:1001c800b2320000b2320000b2320000b232000097
:1001d800b2320000b2320000b2320000b232000087
:1001e800b2320000b2320000b2320000b232000077
:0801f800b2320000b232000037
:020000040000fa
:10020800b2320000b2320000b2320000b232000056
:10021800b2320000b2320000b2320000b232000046
:10022800b2320000b2320000b2320000862f000065
:10023800b2320000b2320000b2320000d231000007
:10024800b2320000b2320000b2320000de280000f4
:100258003229000042320000b2320000b2320000ff
:10026800b2320000b2320000b2320000b2320000f6
:10027800b2320000b2320000b2320000b2320000e6
:10028800b2320000b2320000b2320000b2320000d6
:10029800b2320000b2320000b2320000b2320000c6
:1002a800b2320000b2320000b2320000b2320000b6
:1002b800b2320000b2320000b2320000b2320000a6
:1002c800b2320000b2320000b2320000b232000096
:1002d800b2320000b2320000b2320000b232000086
:1002e800b2320000b2320000b2320000b232000076
:1002f800b2320000b2320000b2320000b232000066
:10030800b2320000b2320000b2320000b232000055
:10031800b2320000b2320000b2320000b232000045
:10032800b2320000b2320000b2320000b232000035
:10033800b2320000b2320000b2320000b232000025
:10034800b2320000b2320000b2320000b232000015
:10035800b2320000b2320000b2320000b232000005
:10036800b2320000b2320000b2320000b2320000f5
:10037800b2320000b2320000b2320000b2320000e5
:10038800b2320000b2320000b2320000b2320000d5
:10039800b2320000b2320000b2320000b2320000c5
:1003a800b2320000b2320000b2320000b2320000b5
:1003b800b2320000b2320000b2320000b2320000a5
:1003c800b2320000b2320000b2320000b232000095
:1003d800b2320000b2320000b2320000b232000085
:1003e800b2320000b2320000b2320000b232000075
:0803f800b2320000b232000035
:020000040000fa
:1024dc00256400002e25000030320000640000004e
:1024ec0020200000202000002020000000560000ca
:1024fc006f6c000074610000676500003a200000fa
:10250c0020250000642e00002530000032640000fd
:10251c005600000020200000202000002020000099
:10252c0020200000202000002020000020000000bf
:10253c00546500006d7000003a0000004d6f000003
:10254c00646500003a0000004c61000073740000e8
:10255c00436f00006d6d00003a00000054650000f0
:10256c006d70000000700000776d0000000000002e
:10257c0011110000222200003333000044440000fb
:10258c0055550000666600007777000088880000cb
:10259c0099990000aaaa0000bbbb0000cccc00009b
:1025ac00dddd0000eeee0000cecd0000acab000097
:1025bc0002020000030300000404000005050000f3
:1025cc000606000007070000080800000a090000c2
:1025dc0010100000101100001212000051430000f6
:1025ec006f6e00007342000031000000515000007b
:1025fc00726f000064420000320000005150000075
:10260c00726f000064420000330000005143000070
:10261c006f6e000073420000340000005150000047
:10262c00726f00006442000035000000514300004e
:10263c006f6e000073420000360000009600000030
:10264c00c8000000fa0000002c0100005e01000030
:10265c0090010000c2010000f4010000425400008f
:10266c0065730000743100000042000054650000e6
:10267c007374000032000000434f00004d54000002
:10268c0078000000434f00004d520000780000001d
:10269c00496e0000744d0000617400006800000079
:0c26ac00494400004c4500000000000004
:020000040000fa
:1026b8000000fa00fc3cec000080fa000000060074
:1026c8000000fa00889fbe008a1f78000005780085
:1026d80081047800e38f50000100360039002000a3
:1026e800fc0d070040e880008a0f500002003a0005
:1026f8000005eb00020037000a00e00002003a0083
:1027080048e88000010037000a047800b808900003
:10271800818f540025003200030036000a00e000d3
:1027280003003a00040037000a00e00002003a0003
:102738001a002000010037000005eb00390c980052
:1027480064801400600498006a09b900e0c7210099
:1027580002004000d8009000808f50000e003a0020
:102768008884e80009007800300e0700b808900057
:1027780000e88000808f50000100360001e88800e2
:10278800380990006a11b900e0c721000200400032
:1027980089007800ff0d0700e10f550003003a009b
:1027a8003c3002000000000000000000ce0d0700d1
:1027b8004f0578004f04be000080fa0000000600b4
:1027c8000000fa00889fbe008a1f78008004780005
:1027d800c00d070040e88000890f500002003a0051
:1027e8008004eb00020037000900e00002003a0014
:1027f80048e8800001003700090478000885e800ef
:102808000a007800090e0700280890000000e00080
:10281800020032006c004400040e07008a007800b1
:1028280020c52100db0d0700af0d07000900e000ff
:1028380003003a003c3002000000000000000000e5
:102848004f0578004f04be000080fa000000060023
:102858000000fa0000017800d000900020c5210097
:10286800808f500007003a00a2089000c0c52100e0
:10287800808f500003003200100020000100e000ab
:10288800010032000000eb000080fa0000000600a2
:102898000000fa00889fbe00000478000000e000f5
:1028a8001f00320040e88000800f54001c003200f6
:1028b800880d070008007800e5ff0700e10f5000c9
:1028c80016003a008884e80009007800d70d070050
:1028d800b808900000e88000808f500001003600a2
:1028e80001e88800380990006a11b900e0c72100a2
:1028f8000200400089007800a60d070040e880002b
:10290800b808900030089000808f5000030039000c
:102918003c3002000000000000000000720d0700bb
:102928004f04be000080fa00000006000000fa0014
:10293800889fbe008a1f780000047800c4ff070043
:102948000005eb00e10f50001d003a00e1e78000b0
:102958000100e00016003a0040e880000105780018
:10296800b808900030089000808f500001003900ae
:102978001a0020008884e80009007800ab0d0700e1
:10298800b808900000e88000808f500001003600f1
:1029980001e88800380990006a11b900e0c72100f1
:1029a80002004000890078007a0d07000400370013
:1029b800ec004400c0c52100760d07000005eb00bf
:1029c8000a0078004f0578004f04be000080fa0026
:1029d800000006000000fa0042a0a800fe3cef003c
:1029e800390d07000080fa00000006000000fa0018
:1029f800881f7800fc1ce2002b003a00043dec0024
:102a0800041de20005003a0040e3800031e3800045
:102a180041e3880030e38800f63cec0040e38000a6
:102a28001000e00022003a002a00370098009000c9
:102a380020e88000808f500026003e000880e800d3
:102a48007a0d0700280890000000e000020032001c
:102a58006c004400750d0700b808900000e880007d
:102a6800808f50000100360001e888008880e80067
:102a7800380990006a11b900e0c72100020040003f
:102a8800440d070040e380001000e0001100320010
:102a980040e3800030009000300490000800e0001f
:102aa800e2ff3a000b003700fa3cec00090037005f
:102ab80040e3800030009000300490000800e000ff
:102ac800040032009800900020e88000808f5000b9
:102ad800daff36004f0478000080fa000000060094
:102ae8000000fa00889fbe00fa0c0700fc3ced00cd
:102af800e0e780000000e00033003a00061de20035
:102b08003100320080047800150037006c00440062
:102b1800460d07000880e800440d0700b80890003b
:102b280000e88000808f50000100360001e888002e
:102b38008880e800380990006a11b900e0c72100d0
:102b480002004000130d0700b808900040e880001c
:102b580030089000808f50000100390019002000d3
:102b68005c1ce2000500320010e380003000900099
:102b7800000478000000e000e4ff3a00fa1ce200dc
:102b880013003a000500370098ff0700fa3ced00f3
:102b9800fa1ce20006003200fbff3700e18f540008
:102ba80003003200c0e78000e10f500006003a0041
:102bb800f83cef003c30020000000000000000007c
:102bc80018002000050037000004eb000300370060
:102bd800fa1ce200f6ff3200ebff3700c20c0700d8
:102be800080078004f04be000080fa0000000600cc
:102bf8000000fa00889fbe00800478000000e00012
:102c080016003200aafe070028e880000884440065
:102c1800089dec00050d070040e8800018009800aa
:102c280020e88000800f54000500310041e8800052
:102c380030e380008180e800e40c070004003700de
:102c480041e8800040e380008180e800df0c070055
:102c5800a3ff07000000e00003003a003c30020038
:102c680000000000000000004f04be000080fa00d1
:102c7800000006000000fa00889fbe00800478006b
:102c8800010478008afe0700990078000884400053
:102c980020e88000808f500003003600888f5000a5
:102ca8000600360002003700888f500005003e00fd
:102cb80020e88000800f540002003e000000eb0076
:102cc8000100370010002000880c78000000e000a8
:102cd80010003200089dec00d40c070040e880008a
:102ce8001800980020e88000800f5400050031008b
:102cf80041e8800030e380008180e800b30c0700e1
:102d08000400370041e8800040e380008180e8004b
:102d1800ae0c070072ff07000000e00003003a0055
:102d28003c30020000000000000000004f04be001c
:102d38000080fa00000006000000fa00881f7800f2
:102d4800640c070028e88000670c0700080078007a
:102d58004f0478000080fa00000006000000fa0026
:102d680030e880000080fa00000006000000fa0049
:102d7800fc1ce2001500320010002000c0e78800ab
:102d880019003700003ded001000370000e8800012
:102d98006a00b900e2c721008000410011009000dc
:102da800100190009200980064804000800f51004c
:102db80002003a0012019000920098001100900061
:102dc8003000900040e888000700370000e88000e5
:102dd8006a00b900e2c72100620078000000e00044
:102de800e8ff3200e9ff37000080fa000000060023
:102df8000000fa00881f78000104780041e880008c
:102e0800ec804000710c0700089dec00870c07005f
:102e1800e10f440005003a0041e880008180e800a5
:102e280020c521005b0c07001000370020e8800057
:102e38000000440041e880009000980021e88000ec
:102e4800810f50000500310041e8800030e3800028
:102e58008180e8005d0c07000400370041e880002d
:102e680040e380008180e800580c07004f04780098
:102e78000080fa00000006000000fa00881f7800b1
:102e880080007800100078000000e00002003a009e
:102e980000047800020037003100900030049000f0
:102ea8006c004400610c0700fc1ce2000e003a00b4
:102eb8000880e8005d0c0700b808900000e8800072
:102ec800808f50000100360001e888008880e80003
:102ed800380990006a11b900e0c7210002004000db
:102ee8002c0c070003003700ec004400c0c521008b
:102ef800280c07003808900041e88000b1089000cd
:102f08000001eb00810f5000010039001200200081
:102f1800020078004f0478000080fa0000000600e4
:102f28000000fa00b1e780000108780021e880007d
:102f3800110098000080fa00000006000000fa0066
:102f4800889fbe008a1f7800000478000105780079
:102f5800e00b07001a0178008004eb00e10f410044
:102f680014003200b0e78000980f1000040032000f
:102f780021e8800018009000810f50000c003600f6
:102f88009800900001007800041db500800f5100e2
:102f98000700360001007800041db500000d51003f
:102fa80008007800deff07008004eb00010037000e
:102fb80019002000cc0b0700090078004f057800a5
:102fc8004f04be000080fa00000006000000fa006e
:102fd80010002000c0e788000080fa00000006000a
:102fe8000000fa000080fa00000006000000fa0065
:102ff800f0e38000e10f5000030036003c3002008f
:103008000000000000000000ea070700f8ff370092
:103018000000fa00889fbe008a1f780080047800ac
:10302800020478007a004000420020008cf5070076
:103038000040eb00d05c9800e30f5400030036001a
:10304800380020001a002000010037006405140031
:10305800b80c98000980e800c90b07006c8444008c
:1030680008007800c60b0700c90498000a0c78000d
:10307800990c98004f0578004f04be000080fa00b4
:10308800000006000000fa00889fbe00e8c7210083
:1030980069ca210008007800b00b07006a044400e0
:1030a800888f5400fbff3a0040c72100ab0b070094
:1030b800a0c62100a90b0700c0c52100a70b070067
:1030c80020c52100a50b070040c7210040e3880068
:1030d800a0c6210030e388004f04be000080fa003b
:1030e800000006000000fa00889fbe008a1f7800d2
:1030f800000578000104780000022000f10c0700a8
:10310800800478000000e000100032000800e000b1
:1031180003003a000a004500ea0c070000047800a2
:10312800c80c98000800e00004003a000900780084
:10313800fd0c070088047800040037000a014500e8
:10314800510a20000800780058f5070009007800a7
:103158004f0578004f04be000080fa00000006000a
:103168000600fa00889fbe008a9fbe008c9fbe00a2
:10317800000f780001067800020578001307980010
:10318800840678002507980086007800870578006f
:1031980002007800d3ff0700800478000080eb006d
:1031a8000900e00041003200490c90000a00450087
:1031b800000044000080e900f00c98000a02780042
:1031c8008b0178000d0178008c00780009007800e8
:1031d8008fff07001e0190009e007800080078000d
:1031e800f30a0700800c78003a0b0700063dec0054
:1031f80030e88000e10f500003003a0049e88800f9
:10320800a0ff070007003700fe1ce20005003a0097
:1032180040e8800030089000808f56000100390097
:1032280049e88800b908900010e88000808f5000b5
:103238000100360011e88800f43cec00b908900061
:1032480000e88000808f50000100360001e8880007
:103258008980e800390990006a11b900e0c72100a7
:10326800020040004b0b07001f0b07002e009000c8
:103278000000e0000100320009087800fe1ce200ae
:103288000900320040e88000300890008d0f50009f
:10329800050031003c300200000000000000000082
:1032a8001000200001003700100020004f06be006b
:1032b8004f05be004f04be000080fa000000060063
:1032c8000000fa008003eb000003eb0086027800a0
:1032d80006027800860178009206200061352900f0
:1032e800a07f21009eff0700e10f500004003a0074
:1032f80042a0a800f0e78800043def00c20a0700da
:103308000080fa00000006000000fa00889fbe0056
:103318008a9fbe0080047800010578000000e00064
:103328002400320060022000660c070000047800c8
:103338000000e0001f0032000ac8b90080057800cc
:103348000000e8005f0c070000017800000c78001e
:103358000000e000130032000b0040001004980049
:103368000000eb00600c9800220498000900e900b6
:1033780000d0b9000000410030049800790c980092
:103388000a1498000080eb0010149800201498008c
:1033980068004400f10a070072004400ef0a0700c1
:1033a80005003700080078005f0c07000004eb00f8
:1033b800010037000004eb00080078004f05be004c
:1033c8004f04be000080fa00000006000000fa006a
:1033d800889fbe0000047800be0a0700e808900035
:1033e8008004eb0078089000808f500001003a00bc
:1033f80019002000bc0a0700090078004f04be002d
:103408000080fa00000006000000fa00881f78001b
:1034180000047800af0a0700680c9000b20a0700a1
:10342800080078004f0478000080fa0000000600c9
:103438000000fa00600890000080fa000000060012
:103448000000fa00881f7800000478001000780057
:10345800350c070008007800330c07004f0478008b
:103468000080fa00000006000000fa00881f7800bb
:103478000004780002007800081190000200e000c3
:10348800190032000000e0000c003a00280090000b
:103498006cf407002800900088109000010040009c
:1034a8002004980098009000810f50000e00390009
:1034b80018007800200498000b00370038009000ae
:1034c80060f4070038009000881090000100500058
:1034d80030049800980f5000030031001800900045
:1034e8000100500030049800680890000000e800cf
:1034f800600c98004f0478000080fa000000060075
:103508000000fa00889fbe000004780001027800dd
:103518008204780003017800e008900070089000a9
:103528008001eb00808f5000160031008400780085
:1035380008007800ccff070028109000e10f400039
:103548000b003a00180890000000e0000c00320060
:103558007200440048fe07000000e0000800320046
:1035680010002000800c78008001780005003700ea
:103578000000e80020149800130020000100370024
:1035880013002000030078004f04be000080fa00fa
:10359800000006000000fa000001780081017800b0
:1035a8001000e0000e003200300090008210900001
:1035b800010040003001980092009000810f5000f7
:1035c80002003900120078003001980066004100be
:1035d80090007800021190000300780019f40700a9
:1035e8000080fa00000006000000fa00889fbe0074
:1035f8000004780082047800600890000000e00071
:103608001700320008007800e2ff07006808900001
:103618000000e900600c980018109000e10f4000cd
:103628000a003a00480090000000e0000b00320059
:103638006800440010fe07000000e00007003200a8
:1036480010002000800c7800050037000000e8001a
:10365800101498001000200001003700100020000e
:103668004f04be000080fa00000006000000fa00c7
:10367800881f780000047800160a070028109000b8
:103688000000e00029003c000d00370018089000f9
:103698000000e0000a00320072004400f6fd070056
:1036a8000000e0000100320048fe070028109000ea
:1036b8000000e900201498004240a900f3ff3c00f4
:1036c8000080eb0020149800070a0700010a070091
:1036d800181090000000e00018003c000d003700b2
:1036e800480090000000e0000a0032006800440032
:1036f800e1fd07000000e0000100320033fe070092
:10370800181090000000e900101498004240a90029
:10371800f3ff3c000080eb0010149800f20907004a
:103728004f0478000080fa00000006001808900096
:103738000000e000e2ff3200d7ff370048009000a9
:103748000000e000f3ff3200e8ff37000600fa004f
:10375800889fbe008a9fbe008c1f78008004780076
:103768008105780022079800030678000005eb0021
:10377800d8090700690890000000e0001f00320027
:10378800390490008b0078000900780081ff070059
:103798000c00e0000b003a00690890000000e90006
:1037a800e00c9800490090000000e0001000320092
:1037b80068804400b0fd0700e10f50000c003a009b
:1037c80008003700b8049800190890000000e000cd
:1037d8000700320072804400a7fd07000000e000e7
:1037e800030032003c30020000000000000000002e
:1037f800bd09070010002000370037002e04900094
:103808000800e00003003a00b70907000800780044
:10381800310037000a00e00003003a000e0078008b
:10382800bffd07001a002000af090700a0fb070032
:10383800a809070019109000e10f400002003a00a3
:103848000000eb009014980029109000e10f400050
:1038580002003a000000eb00a0149800a20907003b
:10386800e40047000e007800b4fd07000000e00007
:1038780015003a0097090700690c90009a0907009b
:103888000800e0000c003a00ae009000728044008e
:1038980057fd07000900780074ff070090fc070037
:1038a8000000e000b2ff3a003c30020000000000d7
:1038b80000000000aeff3700090078006bff07002a
:1038c80087fc0700aaff37000900780067ff070098
:1038d80083fc07000000eb004f0678004f05be0090
:1038e8004f04be000080fa00000006000600fa003f
:1038f800889fbe008a9fbe008c1f780080047800d5
:103908000106780022079800830578000005eb007f
:1039180070090700e908900079089000808f50002e
:10392800110031000b0178008c0078000900780044
:10393800cdfe0700190890000000e00007003200e3
:10394800728044004cfd0700e10f500003003a006c
:103958003c3002000000000000000000620907007f
:1039680010002000360037002e0490000800e00008
:1039780003003a005c0907000800780030003700af
:103988000a00e00003003a000e00780064fd07001a
:103998001a0020005409070045fb07004d090700dd
:1039a80019109000e10f400002003a000000eb00ff
:1039b8009014980029109000e10f400002003a008e
:1039c8000000eb00a014980047090700e400470036
:1039d8000e00780059fd07000000e00014003a00ce
:1039e8000900780079fe07000000e0000c003200b2
:1039f800ae00900068804400fdfc070009007800d4
:103a08001aff070036fc07000000e000c0ff3a007c
:103a18003c3002000000000000000000bcff37003e
:103a28000900780011ff07002dfc0700b8ff3700d8
:103a3800090078000dff070029fc07000000eb00d3
:103a48004f0678004f05be004f04be000080fa0004
:103a5800000006000000fa00e00890000100ea00fb
:103a6800010070004f00de00610010000080fa00c5
:103a7800000006000000fa00e00890000001eb00da
:103a880070089000808f500001003a00120020005a
:103a9800020078000080fa00000006000000fa002a
:103aa800889fbe008a1f780000047800010578000e
:103ab8008204780042a0a80044fe07000000e0004d
:103ac8000b0032000900e00006003200e800440064
:103ad800090078003c03070042a0a900c0ff2f009e
:103ae8001a00370042a0a9000000eb0017003700b9
:103af80042a0a9000000000042a0a800e808900029
:103b0800780890000001eb00808f50000d00310014
:103b18000001eb008a0078000800780052fe0700d8
:103b2800180890000000e000050032007200440010
:103b380022040700b2ff2f000000e00001003a0055
:103b48001200200042a0a900020078004f0578006a
:103b58004f04be000080fa00000006000000fa00d2
:103b6800881f7800000478008101780042a0a8002e
:103b7800600890000000e0000b003a000200e0003e
:103b880006003200f2004400020078000e0307002d
:103b980042a0a900c0ff2f002700370042a0a900bb
:103ba8000000eb002400370042a0a900000000003c
:103bb80042a0a800680890000000e00002003a0057
:103bc800800078001a0037003800900088109000b4
:103bd800010040003004980098009000810f5000c8
:103be8000200390018007800300498006808900036
:103bf8000000e900600c980066004400900078001e
:103c080008119000030078008ef207004800900029
:103c18000000e0000500320068004400e7030700e8
:103c2800b1ff2f000000e00001003a001100200061
:103c380042a0a900010078004f0478000080fa0033
:103c4800000006000000fa00889fbe00000478000b
:103c58008101780082047800e008900070089000e4
:103c6800808f50000f0031000001eb0083007800c6
:103c780008007800fcfd07000900e00009003a0090
:103c8800180890000000e0000800320072004400ac
:103c9800ca030700110020000000e00004003a00f9
:103ca8000200370089007800010037008000eb002f
:103cb800010078004f04be000080fa0000000600f2
:103cc8000000fa00889fbe00000478008101780097
:103cd80082047800600890000000e0001e003200b6
:103ce80038009000881090000100400030049800cf
:103cf80098009000810f50000200390018007800e9
:103d080030049800680890000000e900600c9800f2
:103d180066004400900078000811900003007800c5
:103d280048f207001900e0000a003a004800900035
:103d38000000e00007003200680044009f0307000d
:103d48000000e0000300320010002000800c780022
:103d580001003700100020004f04be000080fa0068
:103d6800000006000000fa0021002000500020009a
:103d780065fd070060e988008003eb000003eb00a5
:103d88008602780034002000860178009206200020
:103d98004133290080ee2100f1fc07008003eb008d
:103da8000003eb00a5d22100240020008601780042
:103db80092062000b1332900800b2200e8fc07009e
:103dc8000080fa00000006000600fa00889fbe0086
:103dd8008a9fbe008c9fbe000006eb001d002000dd
:103de800e200470064004700010878001c079800bb
:103df8008c007800a00020000104dd00cefb070045
:103e08008004780060e980008001eb0008017800f8
:103e18008e0078004dfe07000000e000010032002f
:103e2800fde88800c4fb070089005000810f54009a
:103e380001003600fde888006f004400808f5000c4
:103e480001003600fde888001e0090008000e800b0
:103e580011079800e48f5000e6ff34001c07980013
:103e680064004700900578001800200060e9800091
:103e78008001eb00030178008b0078009bfe0700af
:103e8800e10f500001003200f8e888001e009000a1
:103e98000000e80010079800e40f5000f3ff34001a
:103ea8001c0798008c0078001a002000a000200051
:103eb8000104dd00a0fb07008004780060e98000b1
:103ec8008001eb00080178008b00780087fe07006e
:103ed8000000e00001003200fae8880096fb0700c5
:103ee80089005000810f540001003600fae888006c
:103ef8006f004400808f500001003600fae8880007
:103f08001e0090008000e80011079800e48f500020
:103f1800e6ff3400283def0050e980005cfa070016
:103f280041e9800050052000808f500006003200d3
:103f380000047800400120002dfb070040e98000c4
:103f4800880f5000fbff3a004001200028fb0700c3
:103f58004ce988001c07980018002000590520002b
:103f680060e980008001eb00030178008e00780092
:103f7800f6fd0700e10f500001003200f8e8880064
:103f880060e980008001eb00030178008b00780075
:103f980056fe0700e10f500001003200f8e88800e3
:103fa80040e98000890f500001003a00f8e88800d5
:103fb80050e9800051002000c1f9070040e9800065
:103fc800890f500001003a00f8e8880050e98000a5
:103fd80021002000baf907001e0090000000e80048
:103fe80010079800e40f5000ddff340041e980001d
:103ff80050052000808f5000060032000004780031
:1040080040012000fafa070040e98000880f5000bc
:10401800fbff3a0040012000f5fa07004ce9880050
:104028001c0798001800200060e980008001eb0060
:10403800030178008e007800c4fd0700e10f5000ee
:1040480001003200f8e888001e0090000000e80037
:1040580010079800e40f5000f3ff340050e9800087
:104068000bfa070041e9800050052000808f5000be
:10407800060032000004780040012000dcfa070046
:1040880040e98000880f5000fbff3a004001200003
:10409800d7fa07004ce988001c0798001800200090
:1040a8005905200060e980008001eb0003017800d9
:1040b8008b0078000dfe0700e10f50000100320070
:1040c800f8e8880060e980008001eb0003017800cf
:1040d8008e0078009dfd0700e10f500001003200be
:1040e800f8e8880040e98000890f500001003a0094
:1040f800f8e8880050e980005100200070f90700b6
:1041080040e98000890f500001003a00f8e8880073
:1041180050e980002100200069f907001e00900086
:104128000000e80010079800e40f5000ddff34009d
:1041380041e9800050052000808f500006003200c1
:104148000004780040012000a9fa070040e9800037
:10415800880f5000fbff3a0040012000a4fa070036
:10416800223dec0021ff37000200fa00889fbe00c4
:104178008a9fbe008005eb00590520001a00200028
:104188000000eb008ef90700ebfa07000004780046
:104198000b0f780049e9880060e980008b017800fe
:1041a800f20a20008e007800d0fd07000000e00031
:1041b80001003200fae88800dffa070088005000a2
:1041c800e00a2000808f500003003600e00b20003a
:1041d800808f500001003600fae8880049e988001d
:1041e8000000eb0076f90700d3fa07000004780016
:1041f80049e9880060e980008001eb00f20a2000ac
:104208008e00780051fd07000000e0000100320038
:10421800fae88800c8fa070088005000e00a200081
:10422800808f500003003600e00b2000808f500084
:1042380001003600fae8880049e98800203dec00d2
:10424800cfff37000000fa0011e980000041eb00c1
:1042580030e98000808f500001003a0012c0b3009e
:10426800024078000004a2000081fb0001e9800000
:1042780020e98000808f500001003a000001eb0027
:10428800f0e88000e10f500001003a000001eb0067
:1042980000e9800020e9880010e9800030e9880002
:1042a800020078000080fa00000006000000fa0012
:1042b8000000e000270034008000eb000000000050
:1042c80000000000000000000000000000000000e6
:1042d80000000000000000000000000000000000d6
:1042e80000000000000000000000000000000000c6
:1042f80000000000000000000000000000000000b6
:1043080000000000000000000000000000000000a5
:104318000000000000000000000000000000000095
:104328000000000000000000000000000000000085
:104338000000000000000000000000000000000075
:1043480000000000000000008100e800810f50001c
:10435800daff3a000080fa00000006000000fa00c8
:10436800889fbe00800478000000e000060034004a
:104378000004eb00803e2000ccff07000804e800a2
:10438800888f5400fbff3a004f04be000080fa00fb
:10439800000006000000fa004c00dd00ca22b70049
:1043a8000080fa00000006000000fa004c00dd0062
:1043b800f1ff200001007000ca22b6000080fa0058
:1043c800000006000000fa000000eb00f1ff070003
:1043d800ca82a80080022000b4ff0700ca82a90090
:1043e8000080eb00f0ff070010002000e9ff070045
:1043f800ca82a80020002000d8ff0700ca82a900ae
:10440800e0ff2f00e8ff07000080fa000000060028
:104418000000fa00889fbe008004fb0044ccde0048
:1044280008007800dbff0700cac2a80010002000bf
:104438009eff0700ca82a800800220009bff070099
:10444800ca82a900080078000080ea008180ea009a
:10445800d5ff07006f84640008007800cdff0700cf
:104468001000200091ff0700ca82a80080022000e7
:104478008eff0700ca82a900cac2a90008007800f6
:104488000080ea008180ea00c7ff07008002200060
:1044980086ff07004f04be000080fa0000000600f7
:1044a8000000fa00889fbe00c1cfb30009fc2f00ae
:1044b800e20f50001100320003003c00e10f5000f1
:1044c80009003a000b00370091cfb30049f92f00db
:1044d800e30f500009003200d1cfb30049fd2f008f
:1044e800e40f5000050032008040eb008004eb0030
:1044f8000200370081cfb30009f82f000104fb0048
:1045080008007800a3ff0700ca82a8004001200025
:1045180066ff0700ca82a900080078000080ea0048
:104528008180ea00a0ff07006f846400080078001b
:1045380098ff0700ca82a800400120005bff07001f
:10454800ca82a900080078000080ea008180ea0099
:1045580095ff07004f04be000080fa000000060027
:104568000000fa00cae2a800800220007bff0700d2
:104578002000200087ff0700ca82a80080022000d0
:104588004aff0700ca82a900d0ff2f0086ff070054
:10459800200020007fff0700ca82a80080022000b8
:1045a80042ff0700ca82a900d0ff2f007eff070044
:1045b8008000200077ff0700ca82a8008002200040
:1045c8003aff0700ca82a90070ff2f0076ff070094
:1045d8000000eb006fff0700ca82a80080022000dd
:1045e80032ff0700ca82a9000080eb006eff0700b7
:1045f800e000200067ff0700ca82a80080022000b0
:104608002aff0700ca82a90010ff2f0066ff0700d3
:104618006cff07000000eb005eff0700ca82a800dd
:104628008002200021ff0700ca82a9000080eb0059
:104638005dff07006000200056ff0700ca82a8003f
:104648008002200019ff0700ca82a90090ff2f00ee
:1046580055ff07002000200040ff07000080fa00f7
:10466800000006000000fa00889fbe008a9fbe0076
:1046780080057800000578008004eb00030037000f
:1046880068c07d0062ff07008904e800090478001b
:104698000a0078000cf00700890f5000f8ff3e0070
:1046a8004f05be004f04be000080fa00000006005f
:1046b8000000fa00889fbe0002ccb300e20f500051
:1046c8000d00320003003c00e10f500007003a00e3
:1046d8000800370042c9b300e30f5000060032005b
:1046e80042cdb300e40f5000030032000041eb005c
:1046f8000100370002c8b300014441000844e90042
:104708000804fb00c4c4de000900780021ff07008c
:10471800ca82a80040002000e4fe0700ca82a9005f
:10472800090078000080ea008180ea001eff070087
:104738006f0464000800780016ff0700ca82a8000a
:1047480040002000d9fe0700ca82a90008007800ae
:104758000080ea008180ea0013ff07004f04be00d2
:104768000080fa00000006000000fa00881f7800a8
:10477800880020000000e000040032000004eb0084
:10478800e10f500001003a00a8002000080078005e
:1047980000ff0700ca82a80080022000c3fe0700ad
:1047a800ca82a900080078000080ea008180ea0037
:1047b800fdfe070080022000bcfe07004f047800c1
:1047c8000080fa00000006000000fa00889fbe0082
:1047d8000001780081047800f0e9800000044100bd
:1047e800429dec001106070010ea800018009800ae
:1047f800f0e98000800f54000500310011ea8000c4
:104808008180e80080e58000f0050700040037009b
:1048180011ea80008180e80090e58000eb05070040
:104828000900e0000400320011ea8000ec8040003a
:1048380009007800e50507004f04be000080fa0073
:10484800000006000000fa00881f7800a61ce2009d
:104858001a00320042a0a80030e580000000e00005
:1048680002003a00000478000200370060e580008a
:10487800300490006c004400ec05070042a0a90039
:104888000880e800e9050700b808900000ea800001
:10489800808f50000100360001ea88008880e80017
:1048a800380990006a11b90080cc2100020040004c
:1048b800b8050700a61ce200e6ff3a004f0478009e
:1048c8000080fa00000006000000fa00881f780047
:1048d80019f90700e1e9800001005000d0e98800db
:1048e8002e003700f1e980008100e800f1e9880036
:1048f8000000e900d0e988000100e00004003a0067
:1049080090e5800082e5800092e5880080e58800d7
:1049180090e580001000e00028003a001f003700f2
:1049280098009000f0e98000808f50001b003e0046
:1049380042a0a8000880e800bc05070028089000ed
:104948000000e000020032006c004400b7050700d8
:1049580042a0a900b808900000ea8000808f5000ab
:104968000100360001ea88008880e80038099000d4
:104978006a11b90080cc21000200400085050700bb
:1049880090e580001000e000040032003000900044
:10499800300490000800e000e1ff3a00d0e9800010
:1049a8000000e000cfff3a00f0e98000e0e988006d
:1049b8004f0478000080fa000000060030009000e4
:1049c800300490000800e000f4ff32001800900066
:1049d800808f5000f1ff3900d5ff37000000fa0042
:1049e80098ff0700b8ff070004ea80006a20b900b2
:1049f80082cc2100800041001100e0001900320043
:104a0800090037000201e8006a005000840f5100d5
:104a18001c0032008301e90003ea88008000780066
:104a28001000e000f7ff3200110090001001900024
:104a38009200980064804000800f510002003a0004
:104a48001201900092009800110090003000900030
:104a580010ea880010017800c008900002000100e8
:104a6800080037000400e000060032006a20b900a0
:104a7800e2cb210000004100840178000001eb0036
:104a8800e4ff37000080fa00000006000000fa008a
:104a9800889fbe0088cc2100c9cd2100080078007d
:104aa8002e0507006a044400888f5400fbff3a0073
:104ab800e0cb21002905070040cb2100270507008e
:104ac80060ca210025050700e0cb210090e5880099
:104ad80040cb210080e588004f04be000080fa002a
:104ae800000006000000fa00889fbe008a9fbe00f2
:104af8008c1f780080057800010478000205780092
:104b0800c00120006f060700800478000080eb00d9
:104b18000900e00024003200421de20002003a00d1
:104b280019ea8800d9ff0700e10f54000300360096
:104b3800180020003c002000010037006406140023
:104b48000000eb00d00c9800b80c9800ca0c980034
:104b5800090578000b1d78000a0078000805070091
:104b68006c8444000800780005050700c904980013
:104b7800990c98000c0c7800b908900000ea8000a5
:104b8800808f50000100360001ea88003909900042
:104b98006a11b90080cc2100020040008a00780028
:104ba800fc040700100020004f0678004f05be00e7
:104bb8004f04be000080fa00000006000000fa0062
:104bc800889fbe00900078000100e00002003a00d3
:104bd800810478000200370030009000b004900093
:104be8006c844400080078001005070088007800ed
:104bf80060ca2100e7040700b908900010ea8000a5
:104c0800300890000001eb00808f5000010039004f
:104c180012002000020078004f04be000080fa0055
:104c2800000006000000fa008400a9009400a80013
:104c38008200a8000080fa00000006000200fa00c6
:104c48003df80700000f780055030700b0e9880019
:104c5800c1e9880002002000832c240012f3070019
:104c680045f3070042062000811f78001100090063
:104c78000200d80001017800cf007800821f780078
:104c8800801f7800e0262900801f7800e0d22100ec
:104c980041ee0700e1d2210040d421004fee070089
:104ca800e68757000000e0000d003200b100200048
:104cb800100020007efe07006027290069fe07001b
:104cc800b10020001000200079fe0700e0d221008a
:104cd80064fe0700e1d2210040d4210051ee070014
:104ce800410620000e007800e2f70700d6ff3700e3
:104cf8001200fa00889fbe008a9fbe008c1f7800b1
:104d08000df807000e067800001e7800d80e800007
:104d1800290e80006140b90038f307000005be0085
:104d28000800e00004003d00020020000378240091
:104d38005ef307000005be006148b9002ff30700c5
:104d48000900e00003003d00020020000378240071
:104d580056f307000001be000a00be00b0f30700ca
:104d68003233230033052400cff20700020020006d
:104d7800832c2400ccf20700fff207004206200033
:104d8800811f7800110009000200d8000101780095
:104d9800cf007800821f7800801f7800d027290074
:104da800801f78000c007800fbed07001100200040
:104db800300020003efe07000029290029fe0700d8
:104dc800a10020003000200039fe07000c00780008
:104dd80024fe0700813e20000e007800a5f707009a
:104de800e6875700c9ff37000000fa00f0c0b3009b
:104df800c061b600c0cfb300c061b600c3e1a9006e
:104e080000002800c221b600409c2000d00e880077
:104e1800a0862100200e88007127a900c941a8009a
:104e2800c8c1a800c0c0b300c061b700ca01a900ca
:104e3800c1e1a8000080fa00000006000000fa00a6
:104e480090022000303a8800764040004467b6005f
:104e580000ceb3004467b60012002000a10920006c
:104e68008007200033742000804978008149780049
:104e78008249780071052000600420002374200016
:104e880080497800814978008249780043c7bf008b
:104e98000047b200f04f5000fcff3a0042c7bf0085
:104ea8000058a300fdff32000080fa000000060051
:104eb8000000fa002ca3ef00e8040700ca42a8008b
:104ec80069020700c902a80068c0a800dbff070044
:104ed800a3fd07001000200071fd0700e02929004c
:104ee800e0fd0700200020006dfd0700402a290092
:104ef800dcfd07003000200069fd070040002000ad
:104f080067fd0700a02a2900d6fd0700b100200090
:104f180020002000e6fd0700b1002000300020003e
:104f2800e3fd0700b100200040002000e0fd07007d
:104f3800a2002000005822000100200021000700e4
:104f48008003eb000003eb008602780024002000b9
:104f580086017800220d2000412b290020622200c2
:104f68007ff807008003eb000003eb00860278005f
:104f78002400200086017800220d2000912b2900b2
:104f8800c067220076f80700c942a900abff0700f6
:104f98001c05070094ff0700c822ef00c8e2a8001c
:104fa80000002f00501688001eff0700c4f80700f5
:104fb800ffff37000000fa0088fe07000080fa00b3
:104fc800000006000000fa00881f78008a9fbe00d3
:104fd8000005be0002047800c922a800cb02a80080
:104fe80030002000403688009000200020358800de
:104ff8001100200002007800c3f80700b0ea88001a
:105008001100200008007800bff80700a0ea880017
:105018002062a9002002a90090cfb3002062b60048
:1050280020a2a90020c2a90020e2a900c0cfb30095
:105038002162b6002182a90021a2a90021e2a800cc
:10504800e00f5500e08f5d00030035000a00be0048
:105058006af20700090037006100650001002000be
:105068008b01d1000a81d300020070008380700098
:1050780062f207000001be008cf207000200200067
:105088000318240008f207000001be000068290088
:1050980081c12400e2f207000200200003f023008f
:1050a80081f207003ff3070040118800f0c3b30006
:1050b8002262b6002342a80023c2a90023a2a900a5
:1050c80023e2a90042a0a8008560a9008580a90064
:1050d800a9c0bf00f1c8b300014060000044a000af
:1050e800a9e0b700aac0bf0081cfb30001406000ab
:1050f8000004a000aae0b7009580a8009560a80069
:1051080022c2bf000008a300040032003011800052
:1051180022c2bf000008a300fcff3a0010002000d4
:1051280090ea88000000eb004f05be004f047800ad
:105138000080fa00000006000000fa00b0ea8000d3
:105148008001eb0081f90700800078000000ea0088
:10515800010070004f00de000080fa000000060029
:105168000200fa00014f7800a0ea80008001eb00fd
:105178008e007800ddf907008000eb00e10f500099
:1051880006003a0011002000521de2000300320020
:10519800523def008580a800110020000100780032
:1051a8000080fa00000006000000fa000080fa0003
:1051b800000006003600f800809fbe00829fbe00f7
:1051c800849fbe00869fbe00881f78003400f800c8
:1051d80000002000a00188000400fa000000eb0095
:1051e800100798008560a90022c2bf000008a3002c
:1051f8000b0032000e04780030118000004f780058
:10520800b0ea80008001eb000e81e8008800780099
:10521800bbf8070022c2bf000008a300f6ff3a004f
:105228001e0090000000e000030032003c30020045
:1052380000000000000000000080fa003400f900bf
:105248004f0478004f03be004f02be004f01be005e
:105258004f00be003600f900004006003600f80096
:10526800809fbe00829fbe00849fbe00869fbe00b6
:105278003400f80000002000a00188000400fa00b3
:105288000000eb00100798008580a90023c2bf002a
:105298000018a3000e003a00a0ea80000e81e80082
:1052a8008e007800d0f80700e10f500006003a00a1
:1052b8001e00fb002011880023c2bf000018a300b5
:1052c80003003a00f4ff37001000200090ea88003d
:1052d8001e0090000000e000030032003c30020095
:1052e80000000000000000000080fa003400f9000f
:1052f8004f03be004f02be004f01be004f00be006c
:105308003600f900004006000000fa00889fbe0041
:105318008004780001047800914078000104e000de
:10532800060032000001eb00090078008cff07003e
:10533800d84078000104e000faff3a004f04be00ac
:105348000080fa00000006000000fa00889fbe00f6
:105358008a9fbe008c1f780000067800600020003d
:105368005804070080047800210020001000200065
:10537800e5f70700800c78008b3e20009b0498001e
:1053880020ce2100a0049800600020004d040700f2
:1053980000057800190878000004eb001800980050
:1053a800c0cd2100200598008003eb000803780099
:1053b800880278000c0278008901780092062000a3
:1053c800412f290000ac220065f707008003eb009d
:1053d8000803780088027800080278008a017800bb
:1053e80092062000c12f290020a922005cf707009f
:1053f80060002000330407008004780021002000aa
:1054080010002000c0f70700800c7800980498006e
:10541800e0cd2100a00498006000200029040700c6
:1054280000057800190878001b00980040ce21007c
:10543800200598008003eb000803780088027800b4
:10544800080278008901780092062000413029007e
:1054580000ac220042f707008003eb000803780045
:10546800880278000c0278008a01780092062000f1
:10547800c130290020a9220039f707006000200068
:10548800100407008004780021002000500020004c
:105498009df70700800c78009b04980000ce21003f
:1054a800a0049800600020000604070000057800aa
:1054b800190878001b00980060ce2100200598008c
:1054c8008003eb000803780088027800080278005f
:1054d80089017800920620004131290020a9220084
:1054e8001ff707008003eb000803780088027800a4
:1054f800080278008a01780092062000c13129004c
:1055080000ac220016f707004f0678004f05be00d2
:105518004f04be000080fa00000006000200fa00f6
:10552800889fbe008a1f78008000eb00010f78007a
:10553800000478000e057800810478000100370027
:105548001900200018019000180078008001eb0075
:105558008a007800e5f80700e10f5000f8ff3a00ec
:105568000900e00002003a00280090001008e80056
:105578001e0fe800f3ff37000200fa00889fbe0004
:105588008a1f7800000478008004eb000905780081
:1055980002003700800478001a00200018019000eb
:1055a800180078008001eb008e00780067f807008b
:1055b800e10f5000f9ff3a001e007800808f540078
:1055c800f4ff3a000a00e00002003a0028009000c8
:1055d8001008e8008904e800f0ff37000000fa002e
:1055e800170020008000eb00e4ce210083ce2100cc
:1055f80026ce2100c5cd21000180400060007b003f
:1056080004017800940f500001003a008003eb0079
:105618000180400060097b0060807a000301780007
:10562800930f500001003a008003eb000180400016
:1056380060897a008100e8000482e8008381e8003c
:10564800e38f5000ecff3a00070078000080fa0072
:10565800000006000000fa00889fbe008004780061
:10566800e80f5000010036008900200021002000ca
:105678001000200024f7070000eb88000000e0007d
:105688000e003a00100037000004eb000801780013
:105698008000eb00e0b6220012fd07000804e800d5
:1056a800888f5400f9ff3a000001eb001100200038
:1056b80060bd22000bfd0700030037000900e00071
:1056c800f9ff3200f0ff37004f04be000080fa00f7
:1056d800000006000200fa00881f7800010f780019
:1056e80000047800d008900000102000808f50003f
:1056f8001300320003003e000100e0000700320002
:105708002500370010102000808f5000180032004c
:1057180073004000808f50001f003a0000eb8000ab
:105728000001eb008e007800dcf80700e40f400071
:1057380007003a0000102000500c980016003700af
:1057480000eb80000001eb008e007800d3f8070022
:10575800e50f400003003a0010102000500c98009c
:105768000d003700e10f5000010032005e3def00f0
:105778001e00780000004000413229006080780057
:105788000000e000020032008000eb000efc070081
:1057980040112000500c98004f0478000080fa0057
:1057a800000006000200fa00881f78000004780054
:1057b800d008900000142000808f50000e003200a6
:1057c8000000e800808f5000180032000100e0005f
:1057d80019003a0000eb80000081eb008e00780091
:1057e800def80700e40f400007003a00001420002c
:1057f800500c98001000370000eb80000001eb000f
:105808008e007800d5f80700e50f400003003a0045
:1058180010142000500c980007003700e10f5000ca
:10582800020032005e3def00eaff37001e007800fc
:10583800ad020700e7ff37004f0478000080fa0048
:10584800000006000000fa00f0ea80000080fa007c
:10585800000006000000fa00ca42a900c842a900d8
:105868000080fa00000006000000fa00c842a80004
:105878000080fa00000006000000fa00c842a900f3
:10588800614060004200dd00a12c200091407800ba
:105898000124a10080c0700001007800cae2b700ae
:1058a8000080fa00000006000000fa00cac2bf002b
:1058b8004200de00610060000080fa00000006007f
:1058c8000000fa00e8ff0700e2ff0700602220005e
:1058d80076fa0700e4ff07006004200073fa070067
:1058e800401f200071fa0700dfff07000080fa0060
:1058f800000006000000fa00889fbe00000478003f
:105908008004eb00d3ff07002000200067fa07009f
:1059180061006400d8ff07000884d100c00320009c
:1059280062fa0700d0ff0700200020005ffa070096
:105938008904e800e88f5400f2ff3a004f04be00e3
:105948000080fa00000006000000fa00889fbe00f0
:105958000004eb0089002000beff070020002000a3
:1059680052fa0700c0ff0700800020004ffa070026
:105978000884d100ccff07004700dd000004740054
:105988008007200049fa07008904e900f2ff3a007d
:10599800080078004f04be000080fa0000000600ee
:1059a8000000fa00889fbe00c5ff0700c00c200059
:1059b800d0ff070040042000ceff0700e2ff0700e9
:1059c8000000e000fdff3200bdff0700c00c200012
:1059d800c8ff0700e00b2000c6ff0700daff07003a
:1059e80080047800d8ff070000047800d6ff07007d
:1059f800d5ff0700d4ff0700d3ff0700d2ff070039
:105a0800d1ff07004840dd0000804400cf80de0061
:105a1800faef07000200200003d82300a2ef0700d6
:105a2800b0e98800c1e988004f04be000080fa0090
:105a3800000006000000fa00881f780000047800c3
:105a48000202be0071ea8800820120000400be0044
:105a58005cfd07008003eb000003eb008602780082
:105a68000802e90086017800920620002134290006
:105a780080d52200baf507008003eb000003eb0095
